:100000000C9463000C948B000C948B000C94DA031A
:100010000C94DA030C94DA030C948B000C948B0090
:100020000C948B000C948B000C948B000C948B0024
:100030000C948B000C948B000C948B000C948B0014
:100040000C9460030C948B000C94D0030C94AA03C2
:100050000C948B000C948B000C948B000C948B00F4
:100060000C948B000C948B0000000008000201002F
:100070000003040700000000000000000000000072
:10008000250028002B0000000000240027002A0083
:1000900000000000230026002900040404040404D6
:1000A0000404020202020202030303030303010227
:1000B00004081020408001020408102001020408F6
:1000C00010205404B60611241FBECFEFD8E0DEBFC7
:1000D000CDBF11E0A0E0B1E0E8E6FEE002C005908F
:1000E0000D92AE34B107D9F722E0AEE4B1E001C021
:1000F0001D92A735B207E1F710E0C2E6D0E004C0D8
:100100002197FE010E941C07C136D107C9F70E9442
:1001100036050C9427070C94000090E0FC01E85988
:10012000FF4F3491FC01E255FF4F2491FC01E6564C
:10013000FF4FE491EE2309F43BC0332339F1333010
:1001400091F038F43130A9F0323001F584B58F7D6B
:1001500012C0373091F03830A1F03430B9F48091CA
:1001600080008F7D03C0809180008F778093800016
:100170000DC084B58F7784BD09C08091B0008F77A2
:1001800003C08091B0008F7D8093B000F0E0EE0F4F
:10019000FF1FE458FF4FA591B4918FB7F894EC91ED
:1001A000611103C020952E2301C02E2B2C938FBFED
:1001B00008953FB7F8948091970190919801A0918C
:1001C0009901B0919A0126B5A89B05C02F3F19F05F
:1001D0000196A11DB11D3FBFBA2FA92F982F8827C7
:1001E000820F911DA11DB11DBC01CD0142E0660F22
:1001F000771F881F991F4A95D1F708958F929F9274
:10020000AF92BF92CF92DF92EF92FF926B017C018F
:100210000E94D9004B015C01C114D104E104F10436
:10022000F1F00E94D900DC01CB0188199909AA09D3
:10023000BB09883E9340A105B10570F321E0C21AC5
:10024000D108E108F10888EE880E83E0981EA11C11
:10025000B11CC114D104E104F10419F7DDCFFF9002
:10026000EF90DF90CF90BF90AF909F908F900895C8
:10027000CF92DF92EF92FF920F931F93CF93DF9372
:100280006C017A018B01C0E0D0E0CE15DF0589F06A
:10029000D8016D918D01D601ED91FC910190F08115
:1002A000E02DC6010995892B11F47E0102C021962B
:1002B000ECCFC701DF91CF911F910F91FF90EF908D
:1002C000DF90CF90089520919001309191012817EF
:1002D000390771F490918E0180918F01981741F048
:1002E000E0918E01F0E0E25BFE4F808190E00895A6
:1002F0008FEF9FEF089508951F93CF93DF93DC0155
:100300005C962D913C915D972115310539F481E082
:1003100090E013969C938E9312973DC05196ED9169
:10032000FC91529750969C915097892F80951FB7BA
:100330005E964C915E9741FB772770F941FD609581
:10034000F8944081772311F0492B01C04823408362
:10035000E9012197F1F748E0508160FF02C0592B75
:1003600001C058235083E9012197F1F76695415068
:1003700099F7772321F090818923808303C08081BE
:10038000982B90831FBF5C968D919C915D970197F0
:10039000F1F721E030E0C901DF91CF911F9108957D
:1003A00020919001309191012817390771F48091C3
:1003B0008F0120918E0190E0805C9F4F821B9109FC
:1003C00060E470E00E94D206089580E090E0089515
:1003D000209190013091910128173907B9F490913B
:1003E0008E0180918F01981789F0E0918E01F0E0E5
:1003F000E25BFE4F808120918E0130E02F5F3F4F06
:100400002F73332720938E0190E008958FEF9FEF95
:100410000895FC01918D828D981761F0828DDF0126
:10042000A80FB11D5D968C91928D9F5F9F73928FE7
:1004300090E008958FEF9FEF0895FC01918D828DDC
:10044000981731F0828DE80FF11D858D90E00895A9
:100450008FEF9FEF0895FC01918D228D892F90E001
:10046000805C9F4F821B91098F73992708958BE9B8
:1004700091E00E942B0221E0892B09F420E0822FD9
:100480000895FC01848DDF01A80FB11DA35ABF4F51
:100490002C91848D90E001968F739927848FA68983
:1004A000B7892C93A089B1898C9180648C93938DAA
:1004B000848D981306C00288F389E02D80818F7D9A
:1004C00080830895EF92FF920F931F93CF93DF9352
:1004D000EC0181E0888F9B8D8C8D981305C0E88995
:1004E000F989808185FD24C0F62E0B8D10E00F5F09
:1004F0001F4F0F731127E02E8C8DE8120CC00FB622
:1005000007FCFACFE889F989808185FFF5CFCE0114
:100510000E944102F1CF8B8DFE01E80FF11DE35ADD
:10052000FF4FF0820B8FEA89FB898081806207C0D0
:10053000EE89FF896083E889F989808180648083FE
:1005400081E090E0DF91CF911F910F91FF90EF90AC
:100550000895CF93DF93EC01888D8823C9F0EA8951
:10056000FB89808185FD05C0A889B9898C9186FDAC
:100570000FC00FB607FCF5CF808185FFF2CFA889A9
:10058000B9898C9185FFEDCFCE010E944102E7CF62
:10059000DF91CF91089580E090E0892B29F00E94AF
:1005A000370281110C9400000895009769F0FC0156
:1005B00001900020E9F73197AF01481B590BBC01AE
:1005C0008BE991E00C94380180E090E008958F92DF
:1005D0009F92AF92BF920F931F93CF93DF93CDB7AC
:1005E000DEB7A1970FB6F894DEBF0FBECDBF19A23C
:1005F000423008F44AE08E010F5D1F4F842E912C8B
:10060000A12CB12CA50194010E94E606E62FB901A8
:10061000CA0101501109EA3014F4E05D01C0E95C3F
:10062000D801EC93232B242B252B61F7C8010E94C2
:10063000D502A1960FB6F894DEBF0FBECDBFDF91F5
:10064000CF911F910F91BF90AF909F908F90089581
:10065000CF92DF92EF92FF92CF93DF936C01990FCD
:10066000EE08FF08F7FE1FC0E0919B01F0919C018E
:100670000190F081E02D6DE28BE991E00995EC01AC
:1006800066277727CB016C197D098E099F094AE0FF
:100690000E94E7028C0F9D1FDF91CF91FF90EF909A
:1006A000DF90CF9008954AE0C701B601DF91CF9166
:1006B000FF90EF90DF90CF900C94E7020E9422070A
:1006C0001F920F920FB60F9211242F933F938F9387
:1006D0009F93AF93BF938091930190919401A091C8
:1006E0009501B09196013091920123E0230F2D37AF
:1006F00020F40196A11DB11D05C026E8230F029626
:10070000A11DB11D209392018093930190939401B8
:10071000A0939501B09396018091970190919801D3
:10072000A0919901B0919A010196A11DB11D8093EC
:10073000970190939801A0939901B0939A01BF916A
:10074000AF919F918F913F912F910F900FBE0F907E
:100750001F9018951F920F920FB60F9211242F938E
:100760003F934F935F936F937F938F939F93AF9339
:10077000BF93EF93FF938BE991E00E944102FF91B9
:10078000EF91BF91AF919F918F917F916F915F9109
:100790004F913F912F910F900FBE0F901F90189582
:1007A0001F920F920FB60F9211240F900FBE0F9051
:1007B0001F9018951F920F920FB60F9211242F932E
:1007C0003F934F935F936F937F938F939F93AF93D9
:1007D000BF93EF93FF93E0919001F09191013097D7
:1007E00009F451C0968DA685B785858591FF04C013
:1007F0009C91892329F447C09C91892309F043C027
:10080000A389B4899C918589809589238C93868955
:1008100097890197F1F7608D718DA685B78555850C
:1008200038E020E0CB010197F1F7822F90E0959519
:100830008795282F4C91452309F02068315091F776
:10084000868D81FD209580918F0190E001968F73B8
:10085000992730918E01381749F0A0918F01B0E0AF
:10086000A25BBE4F2C9380938F0103C0868D816065
:10087000868F828D938D0197F1F7A389B4899C911E
:100880008589892B8C93FF91EF91BF91AF919F91B7
:100890008F917F916F915F914F913F912F910F9029
:1008A0000FBE0F901F901895CF93DF9310929E016B
:1008B00010929D0188EE93E0A0E0B0E080939F014C
:1008C0009093A001A093A101B093A20124E031E094
:1008D00030939C0120939B0125EC30E03093A801DC
:1008E0002093A70124EC30E03093AA012093A901C2
:1008F00020EC30E03093AC012093AB0121EC30E0F0
:100900003093AE012093AD0122EC30E03093B00182
:100910002093AF0126EC30E03093B2012093B10177
:100920001092B4011092B5011092B6011092B70165
:1009300010923B0210923A0280933C0290933D0247
:10094000A0933E02B0933F0284E191E0909339027C
:100950008093380210924F0210924E021092510270
:1009600010925002109253021092520210925502AD
:1009700010925402609156026E7F6D7F6093560212
:100980006695617081E068278CE00E948D00EAEB3B
:10099000F0E02491E6EAF0E08491882399F090E079
:1009A000880F991FFC01EA57FF4FA591B491FC01F4
:1009B000E458FF4F859194918FB7F894EC91E22B16
:1009C000EC938FBFEAEBF0E0E491E0934802E6EAB3
:1009D000F0E0E491F0E0EE0FFF1FE458FF4F859147
:1009E000949190934A0280934902E1EBF0E02491C4
:1009F000EDE9F0E084918823C1F090E0880F991F21
:100A0000FC01EA57FF4FC591D491FC01E458FF4F18
:100A1000A591B4919FB7F8948881E22FE0958E2339
:100A200088838C91E823EC939FBF8091560281FDCF
:100A300004C061E083E00E948D0083E08093440263
:100A4000E1EBF0E0E491E0934502EDE9F0E0E491C0
:100A5000F0E0EE0FFF1FE057FF4F859194919093C8
:100A6000470280934602DF91CF910895789484B530
:100A7000826084BD84B5816084BD85B5826085BD9A
:100A800085B5816085BD80916E00816080936E0028
:100A9000109281008091810082608093810080911A
:100AA00081008160809381008091800081608093CB
:100AB00080008091B10084608093B1008091B0008B
:100AC00081608093B00080917A00846080937A0086
:100AD00080917A00826080937A0080917A008160B0
:100AE00080937A0080917A00806880937A001092D7
:100AF000C100E091AB01F091AC0182E08083E09114
:100B0000A701F091A8011082E091A901F091AA013A
:100B100087E080831092B301E091AF01F091B001C2
:100B200086E08083E091AD01F091AE01808180612B
:100B30008083E091AD01F091AE0180818860808377
:100B4000E091AD01F091AE01808180688083E091F9
:100B5000AD01F091AE0180818F7D808310925302B0
:100B600010925202109251021092500210924F02B3
:100B700010924E028DE991E09093550280935402B9
:100B800090914402963108F057C02DEB30E030933D
:100B90004F0220934E022BE931E030935102209313
:100BA00050022CE231E03093530220935202209104
:100BB0006800983050F031E09E3008F430E081E079
:100BC00001C0880F3A95EAF701C084E0822B809338
:100BD0006800983038F09E3040F0963148F020E0C0
:100BE00030E008C02DE630E005C02BE630E002C062
:100BF0002CE630E030934C0220934B02983030F4D6
:100C000081E001C0880F9A95EAF70EC0292F30E0E5
:100C10009E3018F42850310902C02E50310981E06D
:100C200001C0880F2A95EAF780934D028091540203
:100C3000909155020197F1F78091520290915302E1
:100C4000892B49F1E0919001F091910182E0E83324
:100C5000F80709F1309739F0A389B4899C91858907
:100C6000809589238C93809156028E7F80935602C3
:100C700010928F0110928E0188E392E0909391017F
:100C800080939001E0914B02F0914C029081809111
:100C90004D02892B808368EE73E080E090E00E9433
:100CA000FE00812C912C540101E010E0C0E06AE0CC
:100CB00070E080E090E00E94FE006C2F88E392E0FC
:100CC0000E947C0188E392E00E94D0018197D4F3D6
:100CD00088E392E00E94E801F82E8C17C1F080E2D0
:100CE00091E00E94D5024AE0C501B4010E94E702EA
:100CF0008BE391E00E94D5026F2D70E080E090E0E0
:100D00004AE00E94E70282E491E00E94D502780165
:100D100068018FE1C80ED11CCE14DF04CCF085E44D
:100D200091E00E94D502C7010E94280388E391E068
:100D30000E94D50288E392E00E94E8010E94280305
:100D400083E491E00E94D5028FEFE81AF80AE4CF1D
:100D5000CF5F005E1F4F8FEF881A980AA80AB80A63
:100D6000C03109F0A4CF0E94CB0295CF84E191E07D
:100D70009093390280933802809190019091910173
:100D80008853924071F4E0914B02F0914C029081B3
:100D900080914D0280958923808310929101109259
:100DA0009001089597FB072E16F4009407D077FD65
:100DB00009D00E94080707FC05D03EF49095819564
:100DC0009F4F0895709561957F4F0895A1E21A2E67
:100DD000AA1BBB1BFD010DC0AA1FBB1FEE1FFF1FDF
:100DE000A217B307E407F50720F0A21BB30BE40B2F
:100DF000F50B661F771F881F991F1A9469F7609576
:100E00007095809590959B01AC01BD01CF0108952F
:100E1000AA1BBB1B51E107C0AA1FBB1FA617B70720
:100E200010F0A61BB70B881F991F5A95A9F780953C
:100E30009095BC01CD010895EE0FFF1F0590F49130
:100E4000E02D099481E090E0F8940C94270710E0DD
:100E5000C2E6D0E004C0FE010E941C072196C33602
:080E6000D107C9F7F894FFCF98
:100E680000000000620238012B0209021D02A902DB
:100E7800000000007C013801D001E80163017B011A
:100E8800494E56414C4944204348554E4B3A20520E
:100E980065717565737465643A200020676F743AEC
:0E0EA80020000D0A004368616E6E656C20002C
:00000001FF
