:100000000C9463000C948B000C948B000C94ED0208
:100010000C94ED020C94ED020C948B000C948B006C
:100020000C948B000C948B000C948B000C948B0024
:100030000C948B000C948B000C948B000C948B0014
:100040000C94A3020C948B000C94EB030C946703A8
:100050000C94A2030C948B000C948B000C948B00DA
:100060000C948B000C948B000000000023002600F1
:10007000290000000000240027002A0000000000E2
:10008000250028002B0004040404040404040202D4
:100090000202020203030303030301020408102007
:1000A0004080010204081020010204081020000012
:1000B0000008000201000003040700000000000027
:1000C00000004306B00611241FBECFEFD8E0DEBF0C
:1000D000CDBF11E0A0E0B1E0E8E1FEE002C0059094
:1000E0000D92A431B107D9F723E0A4E1B1E001C03A
:1000F0001D92A039B207E1F710E0C2E6D0E004C0DB
:100100002197FE010E94F406C136D107C9F70E946B
:1001100055040C94FF060C94000090E0FC01E2559D
:10012000FF4F3491FC01E656FF4F2491FC01EA5742
:10013000FF4FE491EE2309F43BC0332339F1333010
:1001400091F038F43130A9F0323001F584B58F7D6B
:1001500012C0373091F03830A1F03430B9F48091CA
:1001600080008F7D03C0809180008F778093800016
:100170000DC084B58F7784BD09C08091B0008F77A2
:1001800003C08091B0008F7D8093B000F0E0EE0F4F
:10019000FF1FE458FF4FA591B4918FB7F894EC91ED
:1001A000611103C020952E2301C02E2B2C938FBFED
:1001B0000895CF93DF9390E0FC01E656FF4F249122
:1001C000FC01EA57FF4F8491882361F190E0880F8A
:1001D000991FFC01EE58FF4FC591D491FC01E458E2
:1001E000FF4FA591B491611109C09FB7F894888120
:1001F000209582238883EC912E230BC0623061F41A
:100200009FB7F8943881822F809583238883EC915F
:100210002E2B2C939FBF06C08FB7F894E8812E2B0E
:1002200028838FBFDF91CF9108951F93CF93DF93E2
:10023000182FEB0161E00E94D900209711F460E0D3
:1002400004C0CF3FD10539F461E0812FDF91CF9118
:100250001F910C948D00E12FF0E0E255FF4FE491E7
:10026000E330F9F048F4E130B9F0E230A1F584B5BB
:10027000806284BDC8BD34C0E730E9F0E83019F1D0
:10028000E43049F580918000806280938000D093B3
:100290008B00C0938A0024C084B5806884BDC7BD2C
:1002A0001FC080918000806880938000D093890077
:1002B000C093880015C08091B00080688093B00022
:1002C000C093B3000DC08091B00080628093B000F5
:1002D000C093B40005C0C038D1050CF0B5CFAFCF86
:1002E000DF91CF911F9108953FB7F89480918C03CF
:1002F00090918D03A0918E03B0918F0326B5A89B9A
:1003000005C02F3F19F00196A11DB11D3FBFBA2FA7
:10031000A92F982F8827820F911DA11DB11DBC0107
:10032000CD0142E0660F771F881F991F4A95D1F7CC
:1003300008958F929F92AF92BF92CF92DF92EF92E9
:10034000FF920E9474014B015C0188ECC82ED12CF5
:10035000E12CF12C0E947401DC01CB018819990970
:10036000AA09BB09883E9340A105B10558F021E0D8
:10037000C21AD108E108F10888EE880E83E0981EC1
:10038000A11CB11CC114D104E104F10419F7FF90C0
:10039000EF90DF90CF90BF90AF909F908F90089597
:1003A000CF92DF92EF92FF920F931F93CF93DF9341
:1003B0006C017A018B01C0E0D0E0CE15DF0589F039
:1003C000D8016D918D01D601ED91FC910190F081E4
:1003D000E02DC6010995892B11F47E0102C02196FA
:1003E000ECCFC701DF91CF911F910F91FF90EF905C
:1003F000DF90CF900895209161013091620128171C
:10040000390771F490915F0180916001981741F074
:10041000E0915F01F0E0EC5EFE4F808190E0089596
:100420008FEF9FEF089508951F93CF93DF93DC0123
:100430005C962D913C915D972115310539F481E051
:1004400090E013969C938E9312973DC05196ED9138
:10045000FC91529750969C915097892F80951FB789
:100460005E964C915E9741FB772770F941FD609550
:10047000F8944081772311F0492B01C04823408331
:10048000E9012197F1F748E0508160FF02C0592B44
:1004900001C058235083E9012197F1F76695415037
:1004A00099F7772321F090818923808303C080818D
:1004B000982B90831FBF5C968D919C915D970197BF
:1004C000F1F721E030E0C901DF91CF911F9108954C
:1004D00020916101309162012817390771F48091F0
:1004E000600120915F0190E0805C9F4F821B910929
:1004F00060E470E00E94CC06089580E090E00895EA
:10050000209161013091620128173907B9F4909167
:100510005F0180916001981789F0E0915F01F0E040
:10052000EC5EFE4F808120915F0130E02F5F3F4FF6
:100530002F73332720935F0190E008958FEF9FEF93
:1005400008950E94FA061F920F920FB60F9211247F
:100550002F933F938F939F93AF93BF938091880383
:1005600090918903A0918A03B0918B033091870306
:1005700023E0230F2D3720F40196A11DB11D05C0E6
:1005800026E8230F0296A11DB11D209387038093B7
:10059000880390938903A0938A03B0938B0380917F
:1005A0008C0390918D03A0918E03B0918F030196DF
:1005B000A11DB11D80938C0390938D03A0938E0396
:1005C000B0938F03BF91AF919F918F913F912F91E6
:1005D0000F900FBE0F901F9018951F920F920FB69D
:1005E0000F9211242F933F934F935F936F937F93B9
:1005F0008F939F93AF93BF93EF93FF93E09161012C
:10060000F0916201309709F451C0968DA685B785A7
:10061000858591FF04C09C91892329F447C09C9152
:10062000892309F043C0A389B4899C918589809569
:1006300089238C93868997890197F1F7608D718D55
:10064000A685B785558538E020E0CB010197F1F705
:10065000822F90E095958795282F4C91452309F09E
:100660002068315091F7868D81FD20958091600141
:1006700090E001968F73992730915F01381749F008
:10068000A0916001B0E0AC5EBE4F2C9380936001FE
:1006900003C0868D8160868F828D938D0197F1F7DF
:1006A000A389B4899C918589892B8C93FF91EF91C3
:1006B000BF91AF919F918F917F916F915F914F917A
:1006C0003F912F910F900FBE0F901F9018951F9282
:1006D0000F920FB60F9211242F933F938F939F93F6
:1006E000EF93FF9380915801909159019C012F5FE6
:1006F0003F4F3093590120935801FC01E959FE4FB7
:1007000080818093C6008091010190910201209127
:100710005801309159018217930748F48FEF9FEFEA
:10072000909359018093580188E48093C100FF9110
:10073000EF919F918F913F912F910F900FBE0F904E
:100740001F9018951F920F920FB60F9211242F939E
:100750003F938F939F9320915D0130915E01809133
:1007600058019091590121303105A9F48F3F2FEFA5
:10077000920789F41092C0001092C50089E080931E
:10078000C40086E28093C2001092C6001092590104
:100790001092580117C0892BA9F41092C000109232
:1007A000C50083E08093C4008EE08093C20088E29D
:1007B0008093C1001092C60081E090E090935901AF
:1007C000809358019F918F913F912F910F900FBE71
:1007D0000F901F9018951F920F920FB60F92112431
:1007E0002F938F939F93AF93BF93EF93FF9320919A
:1007F000C0008091C60090915A0124FF06C081E09C
:1008000080935A0187E691E01FC0913029F581114C
:1008100020C082E080935A012FB7F894809188031A
:1008200090918903A0918A03B0918B032FBF80938D
:10083000630190936401A0936501B0936601809178
:10084000560190915701019690935701809356015C
:1008500020C010925A011DC09230D9F4E091560187
:10086000F09157019081981721F091E09093000149
:1008700080838091540190915501E817F90721F484
:1008800010925A01109200013196F0935701E093B3
:100890005601FF91EF91BF91AF919F918F912F9151
:1008A0000F900FBE0F901F901895789484B58260BA
:1008B00084BD84B5816084BD85B5826085BD85B504
:1008C000816085BD80916E00816080936E00109282
:1008D00081008091810082608093810080918100FD
:1008E000816080938100809180008160809380008E
:1008F0008091B10084608093B1008091B0008160EC
:100900008093B00080917A00846080937A00809117
:100910007A00826080937A0080917A00816080936F
:100920007A0080917A00806880937A001092C100EA
:1009300010925E0110925D0182E090E090935C0164
:1009400080935B0110925A01109259011092580144
:1009500087E691E090935701809356012FB7F89462
:100960008091880390918903A0918A03B0918B03B1
:100970002FBF8093630190936401A0936501B093AE
:100980006601E7E6F1E0119223E0E836F207D9F7D5
:1009900082E090E090935E0180935D01C0915B01E5
:1009A00061E08C2F0E94D90060E08C2F0E948D00A6
:1009B00080E98093C1001092C0001092C50083E0CE
:1009C0008093C4008EE08093C20080E092E0909318
:1009D00002018093010180910101909102018959E6
:1009E0009E4F909355018093540161E089E00E94ED
:1009F000D90061E08AE00E94D90061E08BE00E94AA
:100A0000D9001092830310928203109281031092F6
:100A1000800310927F0310927E038DE991E0909302
:100A200085038093840390917403963108F057C036
:100A30002DEB30E030937F0320937E032BE931E0F0
:100A400030938103209380032CE231E030938303C1
:100A50002093820320916800983050F031E09E305E
:100A600008F430E081E001C0880F3A95EAF701C050
:100A700084E0822B80936800983038F09E3040F0FC
:100A8000963148F020E030E008C02DE630E005C0A7
:100A90002BE630E002C02CE630E030937C0320935C
:100AA0007B03983030F481E001C0880F9A95EAF713
:100AB0000EC0292F30E09E3018F42850310902C0B2
:100AC0002E50310981E001C0880F2A95EAF7809302
:100AD0007D0380918403909185030197F1F78091C4
:100AE000820390918303892B49F1E0916101F09198
:100AF000620183E0E836F80709F1309739F0A389FD
:100B0000B4899C918589809589238C9380918603F3
:100B10008E7F809386031092600110925F0188E6B9
:100B200093E09093620180936101E0917B03F091E7
:100B30007C03908180917D03892B808300E010E00D
:100B400088E693E00E946802181619066CF12FB728
:100B5000F8948091880390918903A0918A03B091C1
:100B60008B032FBF40916301509164016091650137
:100B700070916601841B950BA60BB70B88389341C7
:100B8000A105B10508F069C06091680170E089E0D5
:100B90000E9415016091670270E08AE00E941501D1
:100BA0006091670370E065C088E693E00E94800270
:100BB000EC01803150F1682F88E693E00E94140226
:100BC00090E2E92EF12C6FE688E693E00E94140291
:100BD00021E0E21AF108B9F7E12CF12CDD27EC163F
:100BE000FD060CF0B4CF6FEF70E08BE00E941501B2
:100BF0000E94990160E070E08BE00E9415010E9464
:100C000099018FEFE81AF80AEACF6C2F88E693E093
:100C10000E941402DD2785E0CC0FDD1F8A95E1F7E5
:100C20007E012FEFE21AF20AA096CE15DF050CF432
:100C30008ECFC70121E0E21622E0F20614F080E038
:100C400092E0FC01E959FE4F608188E693E00E9442
:100C500014028FEFE81AF80AE8CF6FEF70E089E02E
:100C60000E94150160E070E08AE00E94150160E0DA
:100C700070E08BE00E9415010115110509F460CFA9
:100C80000E9400005DCF10926B0310926A0388EE01
:100C900093E0A0E0B0E080936C0390936D03A09389
:100CA0006E03B0936F0387E091E0909369038093A4
:100CB000680310927F0310927E03109281031092BA
:100CC0008003109283031092820310928503109286
:100CD0008403609186036E7F6D7F609386036695C3
:100CE000617081E0682785E00E948D0061E085E009
:100CF0000E94D900EFE9F0E0E491E0937803EBE89B
:100D0000F0E0E491F0E0EE0FFF1FE458FF4F859113
:100D1000949190937A038093790360E084E00E9439
:100D2000D9008091860381FD04C061E084E00E94C7
:100D30008D0084E080937403EEE9F0E0E491E093A9
:100D40007503EAE8F0E0E491F0E0EE0FFF1FE859E8
:100D5000FF4F859194919093770380937603089544
:100D600087E091E09093690380936803809161012B
:100D7000909162018856934071F4E0917B03F09169
:100D80007C03908180917D038095892380831092DC
:100D9000620110926101089597FB072E16F40094EA
:100DA00007D077FD09D00E94E00607FC05D03EF48D
:100DB000909581959F4F0895709561957F4F089507
:100DC000AA1BBB1B51E107C0AA1FBB1FA617B70771
:100DD00010F0A61BB70B881F991F5A95A9F780958D
:100DE0009095BC01CD010895EE0FFF1F0590F49181
:100DF000E02D099481E090E0F8940C94FF0610E057
:100E0000C2E6D0E004C0FE010E94F4062196C3367B
:080E1000D107C9F7F894FFCFE8
:100E1800012000000000001402D00168028002FBDB
:040E280001130200B0
:00000001FF
