:100000000C9453000C947B000C947B000C947B00AC
:100010000C947B000C947B000C947B000C947B0074
:100020000C947B000C947B000C947B000C947B0064
:100030000C947B000C947B000C947B000C947B0054
:100040000C9495010C947B000C9405020C94DF0138
:100050000C947B000C947B000C947B000C947B0034
:100060000C947B000C947B0000000000250028000D
:100070002B0000000000240027002A0004040404D0
:100080000404040402020202020203030303030342
:10009000010204081020408001020408102001021F
:1000A00004081020070311241FBECFEFD8E0DEBFE5
:1000B000CDBF11E0A0E0B1E0E2E8F6E002C00590BB
:1000C0000D92A431B107D9F721E0A4E1B1E001C05C
:1000D0001D92AF3BB207E1F710E0C3E5D0E004C0EA
:1000E0002197FE010E943403C235D107C9F70E944F
:1000F00037020C943F030C94000090E0FC01E057A1
:10010000FF4F2491FC01E458FF4F8491882399F01C
:1001100090E0880F991FFC01EE58FF4FA591B49114
:10012000FC01E859FF4F859194918FB7F894EC91B9
:10013000E22BEC938FBF0895CF92DF92EF92FF9264
:100140000F931F93CF93DF936C017A018B01C0E073
:10015000D0E0CE15DF0589F0D8016D918D01D60173
:10016000ED91FC910190F081E02DC6010995892B5C
:1001700011F47E0102C02196ECCFC701DF91CF912F
:100180001F910F91FF90EF90DF90CF900895FC01A9
:10019000918D828D981761F0828DDF01A80FB11DBE
:1001A0005D968C91928D9F5F9F73928F90E00895E2
:1001B0008FEF9FEF0895FC01918D828D981731F09C
:1001C000828DE80FF11D858D90E008958FEF9FEFF0
:1001D0000895FC01918D228D892F90E0805C9F4FC6
:1001E000821B91098F739927089589E191E00E94FC
:1001F000E90021E0892B09F420E0822F0895FC0119
:10020000848DDF01A80FB11DA35ABF4F2C91848D9F
:1002100090E001968F739927848FA689B7892C93D4
:10022000A089B1898C9180648C93938D848D98136F
:1002300006C00288F389E02D80818F7D8083089538
:10024000EF92FF920F931F93CF93DF93EC0181E026
:10025000888F9B8D8C8D981305C0E889F9898081E2
:1002600085FD24C0F62E0B8D10E00F5F1F4F0F731E
:100270001127E02E8C8DE8120CC00FB607FCFACFC8
:10028000E889F989808185FFF5CFCE010E94FF00C2
:10029000F1CF8B8DFE01E80FF11DE35AFF4FF08285
:1002A0000B8FEA89FB898081806207C0EE89FF8914
:1002B0006083E889F98980818064808381E090E0AF
:1002C000DF91CF911F910F91FF90EF900895CF9301
:1002D000DF93EC01888D8823C9F0EA89FB8980814E
:1002E00085FD05C0A889B9898C9186FD0FC00FB620
:1002F00007FCF5CF808185FFF2CFA889B9898C9161
:1003000085FFEDCFCE010E94FF00E7CFDF91CF91B7
:10031000089580E090E0892B29F00E94F50081117A
:100320000C94000008950E943A031F920F920FB69A
:100330000F9211242F933F938F939F93AF93BF936B
:100340008091BB019091BC01A091BD01B091BE0113
:100350003091BA0123E0230F2D3720F40196A11D1F
:10036000B11D05C026E8230F0296A11DB11D2093E3
:10037000BA018093BB019093BC01A093BD01B093DF
:10038000BE018091B6019091B701A091B801B091E2
:10039000B9010196A11DB11D8093B6019093B701DB
:1003A000A093B801B093B901BF91AF919F918F9184
:1003B0003F912F910F900FBE0F901F9018951F9295
:1003C0000F920FB60F9211242F933F934F935F9389
:1003D0006F937F938F939F93AF93BF93EF93FF930D
:1003E00089E191E00E94FF00FF91EF91BF91AF91F1
:1003F0009F918F917F916F915F914F913F912F913D
:100400000F900FBE0F901F9018951F920F920FB66E
:100410000F9211242F938F939F93EF93FF93E0916B
:100420002901F0912A018081E0912F01F0913001A2
:1004300082FD12C09081809132018F5F8F73209175
:100440003301821751F0E0913201F0E0E75EFE4F98
:10045000958F8093320101C08081FF91EF919F9130
:100460008F912F910F900FBE0F901F901895CF93E3
:10047000DF93CDB7DEB7A1970FB6F894DEBF0FBEFE
:10048000CDBF789484B5826084BD84B5816084BD1D
:1004900085B5826085BD85B5816085BD80916E0022
:1004A000816080936E001092810080918100826053
:1004B0008093810080918100816080938100809190
:1004C00080008160809380008091B100846080937F
:1004D000B1008091B00081608093B00080917A007B
:1004E000846080937A0080917A00826080937A00A1
:1004F00080917A00816080937A0080917A00806890
:1005000080937A001092C100E0912901F0912A01B4
:1005100082E08083E0912501F09126011082E09134
:100520002701F091280187E0808310923101E0914A
:100530002D01F0912E0186E08083E0912B01F09156
:100540002C01808180618083E0912B01F0912C014E
:10055000808188608083E0912B01F0912C01808163
:1005600080688083E0912B01F0912C0180818F7D48
:1005700080838DE00E947D0081E090E090931801DF
:100580008093170181E10E947D0082E10E947D003D
:1005900083E10E947D0089E191E00E94E900181644
:1005A000190694F589E191E00E94C700092E000C1C
:1005B000AA0BBB0B19A2FE01B196AC01BD014170A3
:1005C000552766277727B695A79597958795405D18
:1005D00042930097A105B10581F7309769F0DF01DB
:1005E0000D900020E9F71197AD014E1B5F0BBF0185
:1005F00089E191E00E949C0042E050E060E171E0FE
:1006000089E191E00E949C000E948901C4CFE9E148
:10061000F1E01382128288EE93E0A0E0B0E08483E0
:100620009583A683B78384E091E09183808385ECF2
:1006300090E09587848784EC90E09787868780ECAC
:1006400090E0918B808B81EC90E0938B828B82EC9D
:1006500090E0958B848B86EC90E0978B868B118E47
:10066000128E138E148E0895EE0FFF1F0590F491D5
:10067000E02D099481E090E0F8940C943F03F89405
:02068000FFCFAA
:100682000000000020019C00E900C700DB006701B8
:040692000D0A00004D
:00000001FF
